:100000000C9446000C9465000C9465000C946500FB
:100010000C9465000C9465000C9465000C946500CC
:100020000C9465000C9465000C9465000C946500BC
:100030000C9465000C942B010C9465000C946500E5
:100040000C9465000C9465000C9465000C9465009C
:100050000C9465000C9465000C9465000C9465008C
:100060000C9465000C9465000C9465000C9465007C
:100070000C9465000C9465000C9465000C9465006C
:100080000C9465000C9465000C94650011241FBE4F
:10009000CFEFD0E4DEBFCDBF11E0A0E0B1E0E0EFF4
:1000A000F3E000E00BBF02C007900D92A431B1074E
:1000B000D9F711E0A4E1B1E001C01D92AD31B10763
:1000C000E1F70E94DE010C94F6010C940000CF933E
:1000D000C82F8A3019F48DE00E9467009091C0000B
:1000E00095FFFCCFC093C60080E090E0CF910895CB
:1000F00040E050E00CC000002F5F3F4F02C020E006
:1001000030E0273063E03607B4F34F5F5F4F4817A6
:100110005907ACF308955E9888B95F9A00005F981C
:1001200082E090E00E947800089581E00E948B00B8
:100130000895813120F481580E948B0008958155E3
:100140000E948B00089584E690E00E94780088E386
:100150000E948B0086E00E948B008FE00E948B0043
:1001600081E00E948B008AE090E00E947800089570
:100170005E9A88B95F9A00005F9881E090E00E94E3
:1001800078000895EF92FF920F931F93CF93DF9320
:10019000182FEB010E9495000EC001E0010F812F86
:1001A0000E9499007E018FEFE81AF80A88810E9468
:1001B000B800102FE70188818111EFCFDF91CF9137
:1001C0001F910F91FF90EF9008950F931F93CF937E
:1001D000883090F48B01880F880F880F805C0E9414
:1001E0008B00C0E007C0F801EC0FF11D80810E9478
:1001F000B800CF5FC830B8F3CF911F910F91089529
:100200008BE0809381008DE790E09093890080934C
:10021000880082E080936F00109285001092840025
:100220008091020190910301A0910401B091050118
:100230008093150190931601A0931701B0931801B4
:100240008FB780688FBF089510928100089581E074
:100250008093190108951F920F920FB60F921124E7
:100260000BB60F922F933F934F935F936F937F93B0
:100270008F939F93AF93BF93EF93FF93809115015B
:1002800090911601A0911701B09118010197A10951
:10029000B1098093150190931601A0931701B093B3
:1002A0001801892B8A2B8B2B91F40E9427018091B6
:1002B000020190910301A0910401B0910501809386
:1002C000150190931601A0931701B0931801FF91A7
:1002D000EF91BF91AF919F918F917F916F915F91BE
:1002E0004F913F912F910F900BBE0F900FBE0F902B
:1002F0001F9018956093020170930301809304018D
:100300009093050160931501709316018093170176
:1003100090931801089580911B0190911C01009702
:1003200019F0019751F00DC048990BC081E090E0A1
:1003300090931C0180931B0104C010921C01109229
:100340001B0180911B0190911C01009719F00197EE
:10035000E9F026C080910101883F21F491E090935B
:10036000140104C08F3111F4109214019091140102
:10037000911105C0869580688093010115C0913068
:1003800099F4880F8160809301010EC08091010172
:1003900080931A018091000186958093000104C02A
:1003A00010921C0110921B018091000182B9909162
:1003B0001A0180910101890F85B908958FEF81B9E4
:1003C00012B884B915B81AB88BB96EE571E080E03F
:1003D00090E00E947A010E9400010E948B018091AE
:1003E00019018823E1F310921901F7CFF894FFCF98
:1003F000801F0100000000000002000000006700F4
:0404000000000000F8
:00000001FF
