:100000000C9446000C945D000C945D000C945D0013
:100010000C945D000C945D000C945D000C945D00EC
:100020000C945D000C945D000C945D000C945D00DC
:100030000C945D000C945D000C945D000C945D00CC
:100040000C945D000C945D000C945D000C945D00BC
:100050000C945D000C945D000C945D000C945D00AC
:100060000C945D000C945D000C945D000C945D009C
:100070000C945D000C945D000C945D000C945D008C
:100080000C945D000C945D000C945D0011241FBE67
:10009000CFEFD0E4DEBFCDBF11E0A0E0B1E0E2E5FC
:1000A000F2E000E00BBF02C007900D92A032B10752
:1000B000D9F70E94F8000C9427010C940000CF930C
:1000C000C82F8A3019F48DE00E945F009091C00023
:1000D00095FFFCCFC093C60080E090E0CF910895DB
:1000E00040E050E00CC000002F5F3F4F02C020E016
:1000F00030E0273063E03607B4F34F5F5F4F4817B7
:100100005907ACF308955E9888B95F9A00005F982C
:1001100082E090E00E947000089581E00E948300D8
:100120000895813120F481580E94830008958155FB
:100130000E948300089584E690E00E94700088E3A6
:100140000E94830086E00E9483008FE00E9483006B
:1001500081E00E9483008AE090E00E947000089590
:100160005E9A88B95F9A00005F9881E090E00E94F3
:1001700070000895EF92FF920F931F93CF93DF9338
:10018000182FEB010E948D000EC001E0010F812F9E
:100190000E9491007E018FEFE81AF80A88810E9480
:1001A000B000102FE70188818111EFCFDF91CF914F
:1001B0001F910F91FF90EF9008950F931F93CF938E
:1001C000883090F48B01880F880F880F805C0E9424
:1001D0008300C0E007C0F801EC0FF11D80810E9490
:1001E000B000CF5FC830B8F3CF911F910F91089541
:1001F000CF93DF93CDB7DEB728970FB6F894DEBF65
:100200000FBECDBF8FEF87B918B88AB91BB888E089
:10021000EEE0F1E0DE01119601900D928A95E1F792
:100220000E949B00BE016F5F7F4F81E00E94DD0056
:1002300080E80E94830066E171E081E00E94BA00DC
:1002400080EC0E94830081E00E94B000FFCFF89410
:02025000FFCFDE
:1002520000000002000000005F000000000000003B
:100262000A040204110E57656C636F6D652100006C
:00000001FF
