:100000000C9446000C9465000C9465000C946500FB
:100010000C9465000C9465000C9465000C946500CC
:100020000C9465000C9465000C9465000C946500BC
:100030000C9465000C942B010C9465000C946500E5
:100040000C9465000C9465000C9465000C9465009C
:100050000C9465000C9465000C9465000C9465008C
:100060000C9465000C9465000C9465000C9465007C
:100070000C9465000C9465000C9465000C9465006C
:100080000C9465000C9465000C94650011241FBE4F
:10009000CFEFD0E4DEBFCDBF11E0A0E0B1E0E6EBF2
:1000A000F9E000E00BBF02C007900D92AE32B1073D
:1000B000D9F711E0AEE2B1E001C01D92AA35B10757
:1000C000E1F70E947A020C94D9040C940000CF93BB
:1000D000C82F8A3019F48DE00E9467009091C0000B
:1000E00095FFFCCFC093C60080E090E0CF910895CB
:1000F00040E050E00CC000002F5F3F4F02C020E006
:1001000030E0273063E03607B4F34F5F5F4F4817A6
:100110005907ACF308955E9888B95F9A00005F981C
:1001200082E090E00E947800089581E00E948B00B8
:100130000895813120F481580E948B0008958155E3
:100140000E948B00089584E690E00E94780088E386
:100150000E948B0086E00E948B008FE00E948B0043
:1001600081E00E948B008AE090E00E947800089570
:100170005E9A88B95F9A00005F9881E090E00E94E3
:1001800078000895EF92FF920F931F93CF93DF9320
:10019000182FEB010E9495000EC001E0010F812F86
:1001A0000E9499007E018FEFE81AF80A88810E9468
:1001B000B800102FE70188818111EFCFDF91CF9137
:1001C0001F910F91FF90EF9008950F931F93CF937E
:1001D000883090F48B01880F880F880F805C0E9414
:1001E0008B00C0E007C0F801EC0FF11D80810E9478
:1001F000B800CF5FC830B8F3CF911F910F91089529
:100200008BE0809381008DE790E09093890080934C
:10021000880082E080936F00109285001092840025
:100220008091030190910401A0910501B091060114
:1002300080933F0190934001A0934101B09342010C
:100240008FB780688FBF089510928100089581E074
:100250008093430108951F920F920FB60F921124BD
:100260000BB60F922F933F934F935F936F937F93B0
:100270008F939F93AF93BF93EF93FF9380913F0131
:1002800090914001A0914101B09142010197A109D3
:10029000B10980933F0190934001A0934101B09335
:1002A0004201892B8A2B8B2B91F40E94270180918C
:1002B000030190910401A0910501B0910601809382
:1002C0003F0190934001A0934101B0934201FF91FF
:1002D000EF91BF91AF919F918F917F916F915F91BE
:1002E0004F913F912F910F900BBE0F900FBE0F902B
:1002F0001F9018956093030170930401809305018A
:100300009093060160933F017093400180934101F7
:100310009093420108958091580190915901813044
:10032000910569F018F0029789F015C0489917C037
:1003300081E090E0909359018093580110C082E0D1
:1003400090E0909359018093580109C0109259018F
:100350001092580104C010925901109258018091D6
:100360005801909159018130910569F120F002976F
:1003700009F4B7C0089580910101982F9E6F9E3FA8
:1003800021F491E090932E0106C0982F9F679F372C
:1003900011F410922E0190912E01911105C08695B5
:1003A00080688093010106C0913021F4880F81603C
:1003B0008093010180910101809357018091000198
:1003C00080935601089581E0809339018091010165
:1003D000809355018091000180935401803871F41D
:1003E00020913D0130913E012F5F3F4F30933E0100
:1003F00020933D0191E0909338016FC0803471F4F7
:1004000020913D0130913E012F5F3F4F30933E01DF
:1004100020933D0191E0909337015FC0803271F4E9
:1004200020913D0130913E012F5F3F4F30933E01BF
:1004300020933D0191E0909336014FC0803171F4DB
:1004400020913D0130913E012F5F3F4F30933E019F
:1004500020933D0191E0909335013FC0883071F4C5
:1004600020913D0130913E012F5F3F4F30933E017F
:1004700020933D0191E0909334012FC0843071F4BA
:1004800020913D0130913E012F5F3F4F30933E015F
:1004900020933D0191E0909333011FC0823071F4AD
:1004A00020913D0130913E012F5F3F4F30933E013F
:1004B00020933D0191E0909332010FC0813069F4A7
:1004C00020913D0130913E012F5F3F4F30933E011F
:1004D00020933D0191E09093310186958093000136
:1004E000089588E00E94990080913D01805D0E94FE
:1004F000B8000895FF920F931F93CF93DF93CDB76A
:10050000DEB728970FB6F894DEBF0FBECDBF88E0E8
:10051000E5E1F1E0DE01119601900D928A95E1F797
:100520008FEF81B912B884B915B887B918B88EEFB2
:100530008AB981E08BB9809339010E94A300BE0182
:100540006F5F7F4F81E00E94E50080E80E948B0092
:100550006DE171E081E00E94C20080EC0E948B009E
:1005600081E00E94B80061E070E080E090E00E94CD
:100570007A010E940001FF24F39400E010E007C21A
:10058000809139018130B9F480912F01909130012F
:10059000803A2FE0920750F0109239010E949500A6
:1005A00066E271E081E00E94C20005C0019690936E
:1005B000300180932F010639110520F00E948B0134
:1005C00000E010E089E3F89E812D11248695982F94
:1005D000990F990F990F890F9F2D981B39F48091CE
:1005E000560182B98091570185B9EFC09130A9F4C5
:1005F00080913801813051F48091550180935301ED
:1006000080915401809352011092380180915201DF
:1006100082B98091530185B9D8C09230E9F48091B4
:100620003701813091F4909155018091540180936C
:10063000500180915301892B8093510190910101C8
:10064000892B80930101109237018091500182B96A
:100650008091510185B9B9C09330E9F48091360198
:10066000813091F4909155018091540180934E0115
:1006700080915101892B80934F0190910101892B29
:10068000809301011092360180914E0182B98091D0
:100690004F0185B99AC09430E9F4809135018130D9
:1006A00091F4909155018091540180934C01809177
:1006B0004F01892B80934D0190910101892B8093EB
:1006C00001011092350180914C0182B980914D0158
:1006D00085B97BC09530E9F480913401813091F483
:1006E000909155018091540180934A0180914D0170
:1006F000892B80934B0190910101892B80930101FB
:100700001092340180914A0182B980914B0185B9E0
:100710005CC09630E9F480913301813091F490917E
:100720005501809154018093480180914B01892BA0
:100730008093490190910101892B809301011092CE
:1007400033018091480182B98091490185B93DC04A
:100750009730E9F480913201813091F49091550104
:10076000809154018093460180914901892B8093A7
:10077000470190910101892B809301011092320170
:100780008091460182B98091470185B91EC0983099
:10079000E1F480913101813091F490915501809183
:1007A00054018093440180914701892B8093450136
:1007B00090910101892B8093010110923101809168
:1007C000440182B98091450185B9809101018F3F33
:1007D00009F068C081E080933C0160C015B88FEFDC
:1007E00082B988E00E94990080913D01815D0E945C
:1007F000B800489B03C081E080933A0148994EC0FD
:1008000080913A01813009F049C010923C018FEF8C
:1008100085B912B88FE18093010180E880930001CF
:1008200010923A0110923E0110923D01109238014F
:100830001092370110923601109235011092340156
:10084000109233011092320110923101109257012F
:1008500010925601109255011092540110925301BA
:1008600010925201109251011092500110924F01BA
:1008700010924E0110924D0110924C0110924B01BA
:1008800010924A01109249011092480110924701BA
:1008900010924601109245011092440180913C0152
:1008A00081119CCF80910001811168C081E080930B
:1008B0003B0160C015B88FEF82B988E00E949900B3
:1008C00080913D01805D0E94B800489B03C081E09B
:1008D00080933A0148994EC080913A01813009F0E5
:1008E00049C010923B018FEF85B912B88FE1809318
:1008F000010180E88093000110923A0110923E01BC
:1009000010923D0110923801109237011092360179
:10091000109235011092340110923301109232017D
:100920001092310110925701109256011092550108
:1009300010925401109253011092520110925101E1
:100940001092500110924F0110924E0110924D01E1
:1009500010924C0110924B0110924A0110924901E1
:1009600010924801109247011092460110924501E1
:100970001092440180913B0181119CCFF3940F5F51
:100980001F4F809143018823E1F31092430180912E
:1009900002018111F5CD81E090E028960FB6F89420
:1009A000DEBF0FBECDBFDF91CF911F910F91FF90A2
:0609B0000895F894FFCF4A
:1009B600801F010100000000000002000000006727
:1009C600000000000000000A040204110E57656CC6
:0E09D600636F6D65210053636F72653A2000F8
:00000001FF
